:100000000C9446000C9465000C9465000C946500FB
:100010000C9465000C9465000C9465000C946500CC
:100020000C9465000C9465000C9465000C946500BC
:100030000C9465000C94A9030C9465000C94650065
:100040000C9465000C9465000C9465000C9465009C
:100050000C9465000C9465000C9465000C9465008C
:100060000C9465000C9465000C9465000C9465007C
:100070000C9465000C9465000C9465000C9465006C
:100080000C9465000C9465000C94650011241FBE4F
:10009000CFEFD0E4DEBFCDBF11E0A0E0B1E0ECE4F3
:1000A000FCE000E00BBF02C007900D92A231B10747
:1000B000D9F721E0A2E1B1E001C01D92A232B2075E
:1000C000E1F70E94A4040C94DF050C940000CF9388
:1000D000DF93CDB7DEB781E00E948E000000DF9194
:1000E000CF910895CF93DF93CDB7DEB784E690E04C
:1000F0000E94330188E30E948E0086E00E948E00F9
:100100008FE00E948E0081E00E948E008AE090E0E5
:100110000E9433010000DF91CF910895CF93DF93C8
:100120000F92CDB7DEB789838BE290E0FC0120818E
:100130008BE290E02F7BFC01208388E290E0298114
:10014000FC0120838BE290E0FC0120818BE290E0B7
:100150002068FC01208300008BE290E0FC012081FC
:100160008BE290E02F77FC01208382E090E00E94F8
:10017000330100000F90DF91CF910895CF93DF936B
:100180000F92CDB7DEB789838BE290E0FC0120812E
:100190008BE290E02064FC01208388E290E02981DA
:1001A000FC0120838BE290E0FC0120818BE290E057
:1001B0002068FC01208300008BE290E0FC0120819C
:1001C0008BE290E02F77FC01208381E090E00E9499
:1001D000330100000F90DF91CF910895CF93DF930B
:1001E00000D000D0CDB7DEB78A837C836B830E94BA
:1001F00067008A81898311C0898191E0980F998372
:100200000E941C018B819C819C012F5F3F4F3C838E
:100210002B83FC0180810E94BE008B819C81FC01AC
:100220008081882349F7000000000F900F900F9005
:100230000F90DF91CF910895CF93DF930F92CDB7B9
:10024000DEB789838981813128F4898181580E94B0
:100250008E0004C0898181550E948E0000000F909D
:10026000DF91CF910895CF93DF9300D000D000D0DD
:10027000CDB7DEB79E838D831A82198213C01C828C
:100280001B8206C000008B819C8101969C838B831E
:100290008B819C8187309340ACF389819A81019650
:1002A0009A83898329813A818D819E812817390714
:1002B00034F30000000026960FB6F894DEBF0FBEA0
:1002C000CDBFDF91CF910895CF93DF9300D00F92F0
:1002D000CDB7DEB789837B836A8389818A3031F425
:1002E0008A819B81BC018DE00E94640180EC90E0DA
:1002F000FC018081882F90E080729927892BB1F3CF
:1003000086EC90E02981FC01208380E090E00F9052
:100310000F900F90DF91CF910895CF93DF9300D08E
:100320000F92CDB7DEB789836A834B838B81882395
:1003300071F08A81282F30E081E090E002C0880FC0
:10034000991F2A95E2F7982F8981892B0EC08A81FF
:10035000282F30E081E090E002C0880F991F2A9595
:10036000E2F7982F9095898189230F900F900F9035
:10037000DF91CF910895CF93DF9300D0CDB7DEB753
:1003800089836A838A81282F30E081E090E002C06F
:10039000880F991F2A95E2F7982F898189230F905A
:1003A0000F90DF91CF9108950F931F93CF93DF9319
:1003B000CDB7DEB708E210E040E064E08FEF0E94C6
:1003C0008D01F8018083000086E290E0FC018081CD
:1003D000809560E00E94BB01882311F081E3D3C0C7
:1003E00086E290E0FC018081809561E00E94BB0183
:1003F000882311F084E3C7C086E290E0FC0180818D
:10040000809562E00E94BB01882311F087E3BBC0A6
:1004100086E290E0FC018081809563E00E94BB0150
:10042000882311F08AE2AFC008E210E040E065E006
:100430008FEF0E948D01F8018083000086E290E03A
:10044000FC018081809560E00E94BB01882311F04F
:1004500082E399C086E290E0FC018081809561E0B2
:100460000E94BB01882311F085E38DC086E290E0F5
:10047000FC018081809562E00E94BB01882311F01D
:1004800088E381C086E290E0FC018081809563E092
:100490000E94BB01882311F080E375C008E210E0E0
:1004A00040E066E08FEF0E948D01F801808300003C
:1004B00086E290E0FC018081809560E00E94BB01B3
:1004C000882311F083E35FC086E290E0FC01808125
:1004D000809561E00E94BB01882311F086E353C040
:1004E00086E290E0FC018081809562E00E94BB0181
:1004F000882311F089E347C086E290E0FC01808107
:10050000809563E00E94BB01882311F083E23BC029
:1005100008E210E040E067E08FEF0E948D01F801F3
:100520008083000086E290E0FC018081809560E09D
:100530000E94BB01882311F081E425C086E290E08F
:10054000FC018081809561E00E94BB01882311F04D
:1005500082E419C086E290E0FC018081809562E02F
:100560000E94BB01882311F083E40DC086E290E075
:10057000FC018081809563E00E94BB01882311F01B
:1005800084E401C080E0DF91CF911F910F91089525
:100590000F931F93CF93DF93CDB7DEB768970FB656
:1005A000F894DEBF0FBECDBF6D837E838F839887A7
:1005B00029873A874B875C878D819E81AF81B8857B
:1005C000898B9A8BAB8BBC8B09851A852B853C85D7
:1005D00069897A898B899C89A90198010E94B4054F
:1005E0006D8B7E8B8F8B988F8D899E89AF89B88D0F
:1005F00089839A83AB83BC8389819A81AB81BC81D7
:10060000892B8A2B8B2B29F489859A85AB85BC8510
:1006100011C089859A85AB85BC858D839E83AF8308
:10062000B88789819A81AB81BC8189879A87AB879A
:10063000BC87C2CF8D879E87AF87B88B6D857E853F
:100640008F85988968960FB6F894DEBF0FBECDBF30
:10065000DF91CF911F910F910895CF93DF9300D039
:1006600000D0CDB7DEB769837A838B839C83898181
:100670009A81AB81BC8180930E0190930F01A0936E
:100680001001B093110180910E0190910F01A09182
:100690001001B09111018093130190931401A09364
:1006A0001501B093160100000F900F900F900F905E
:1006B000DF91CF910895CF93DF93CDB7DEB781E877
:1006C00090E02BE0FC01208388E890E02DE730E00B
:1006D000FC01318320838FE690E022E0FC0120833F
:1006E00084E890E0FC011182108280910E019091CB
:1006F0000F01A0911001B09111018093130190930B
:100700001401A0931501B09316018FE590E0FC0150
:1007100020818FE590E02068FC0120830000DF91BC
:10072000CF910895CF93DF93CDB7DEB781E890E006
:10073000FC0110820000DF91CF910895CF93DF93E9
:10074000CDB7DEB781E0809312010000DF91CF9139
:1007500008951F920F920FB60F9211240BB60F92AD
:100760002F933F934F935F936F937F938F939F93B9
:10077000AF93BF93EF93FF93CF93DF93CDB7DEB7E4
:100780008091130190911401A0911501B09116016F
:100790000197A109B1098093130190931401A093CB
:1007A0001501B09316018091130190911401A0914D
:1007B0001501B0911601892B8A2B8B2B91F40E9485
:1007C0009E0380910E0190910F01A0911001B091B4
:1007D00011018093130190931401A0931501B0931C
:1007E00016010000DF91CF91FF91EF91BF91AF9182
:1007F0009F918F917F916F915F914F913F912F9139
:100800000F900BBE0F900FBE0F901F901895CF93B7
:10081000DF9300D00F92CDB7DEB79B838A838A81A6
:100820009B81892B19F41B821A8200008A819B818B
:10083000892B09F081C00E94D40189838981882F86
:1008400090E0092E000CAA0BBB0B85349105A10585
:10085000B10508F06AC08F519A4FFC010C94D6057F
:1008600085E290E02FE1FC01208365C085E290E005
:1008700021E0FC0120835FC085E290E022E0FC01E2
:10088000208359C085E290E023E0FC01208353C01F
:1008900085E290E024E0FC0120834DC085E290E0F9
:1008A00025E0FC01208347C085E290E026E0FC01C2
:1008B000208341C085E290E027E0FC0120833BC01B
:1008C00085E290E028E0FC01208335C085E290E0DD
:1008D00029E0FC0120832FC085E290E02AE0FC01A2
:1008E000208329C085E290E02BE0FC01208323C017
:1008F00085E290E02CE0FC0120831DC085E290E0C1
:100900002DE0FC01208317C085E290E02EE0FC0181
:10091000208311C085E290E0FC0110820CC085E2CA
:1009200090E02FE0FC01208306C085E290E02BE1FF
:10093000FC012083000000008A819B810F900F90B2
:100940000F90DF91CF910895CF93DF93CDB7DEB7AE
:100950002F970FB6F894DEBF0FBECDBF87E290E0B1
:1009600020EFDC012C9388E290E02FE0FC01208353
:1009700084E290E02FEFDC012C9385E290E0FC0113
:10098000108287E191E09B878A8781E090E09C83D9
:100990008B831D828D81809317018AE090E0A0E017
:1009A000B0E08093180190931901A0931A01B093BD
:1009B0001B018AE090E0A0E0B0E080931C019093DE
:1009C0001D01A0931E01B0931F0187E094E0909356
:1009D0002101809320018AE090E0A0E0B0E08E83C6
:1009E0009F83A887B9878E819F81A885B9858C87C9
:1009F0009D87AE87BF876C857D858E859F850E948C
:100A00002D030E945B031A8219829EC089819A81FC
:100A1000880F991F9E012F5F3F4F820F931F0996EA
:100A2000DC018D919C91FC01458156816781708527
:100A300089819A81880F991F9E012F5F3F4F820FF6
:100A4000931F0996DC018D919C91FC01818192811B
:100A5000A381B481481759076A077B0709F047C08B
:100A600089819A81880F991F9E012F5F3F4F820FC6
:100A7000931F0996DC018D919C91FC0121853285A3
:100A800089819A81880F991FAE014F5F5F4F840F54
:100A9000951F0996DC018D919C91FC018081082EA7
:100AA000000C990BF9010995AC0189819A81880F95
:100AB000991F9E012F5F3F4F820F931F0996DC0104
:100AC0008D919C91242FFC01208389819A81880F2C
:100AD000991F9E012F5F3F4F820F931F0996DC01E4
:100AE0008D919C91FC011582168217821086898156
:100AF0009A81880F991F9E012F5F3F4F820F931F8E
:100B00000996DC018D919C91FC0185819681A781DC
:100B1000B08529813A81220F331FAE014F5F5F4FAD
:100B2000240F351F275F3F4FF90120813181019646
:100B3000A11DB11DF90185839683A783B0878981A3
:100B40009A8101969A83898329813A818B819C813C
:100B50002817390708F45ACF000080911201882322
:100B6000E1F3109212014FCFA1E21A2EAA1BBB1B78
:100B7000FD010DC0AA1FBB1FEE1FFF1FA217B30769
:100B8000E407F50720F0A21BB30BE40BF50B661F7F
:100B9000771F881F991F1A9469F760957095809543
:100BA00090959B01AC01BD01CF010895EE0FFF1F91
:100BB0000024001C0BBE0790F691E02D0994F894D8
:100BC000FFCF30049504950495049504950495048D
:100BD000950495049504950495049504950495044D
:100BE000950495049504950495049504950495043D
:100BF000950495049504950495049504950495042D
:100C000095049504950495048F0495049504950422
:100C1000950495049504840495049504950495041D
:100C200095048A0436043C04420448044E045404E7
:100C30005A0460046604950495049504950495048B
:0C0C4000950495046C04720478047E0492
:100C4C000000000200000000640100000000010030
:020C5C00000096
:00000001FF
